:100000000C942A000C9447000C9447000C94470071
:100010000C9447000C9447000C9447000C94470044
:100020000C9447000C9447000C9447000C94470034
:100030000C9447000C9447000C9447000C94470024
:100040000C9447000C9447000C9447000C94470014
:100050000C94470011241FBECFE5D8E0DEBFCDBF12
:1000600010E0A8E6B0E001C01D92A936B107E1F7A3
:1000700010E0A0E6B0E0E6E0F3E102C005900D92EA
:10008000A836B107D9F70E94D6080C9481090C94C0
:100090000000EF92FF920F931F937B018C0120E0F1
:1000A00030E040E05FE40E94490388238CF0C801FF
:1000B000B70120E030E040E05FE40E94C1010E940F
:1000C000A9039B01AC01205030404040504806C07D
:1000D000C801B7010E94A9039B01AC01B901CA0183
:1000E0001F910F91FF90EF900895A0E0B0E0EBE733
:1000F000F0E00C944A09DC012B01FA019C9192304A
:1001000008F439C1EB018881823008F433C194309E
:1001100069F4843009F02FC111969C91119789815F
:10012000981709F428C1A0E6B0E025C1843009F48D
:1001300021C18230A9F4923009F01DC19A01AD01AC
:1001400088E0EA010990AE01E90109929E0181501F
:10015000C1F7E201898111969C918923818308C1AD
:10016000923009F407C112962D903C901397EB0141
:100170008A819B811496AD90BD90CD90DC901797AD
:10018000EC80FD800E811F819101281B390BB90184
:1001900037FF04C066277727621B730B6032710537
:1001A0000CF061C0121613066CF537014801062EDB
:1001B00004C096948794779467940A94D2F721E0C8
:1001C00030E040E050E004C0220F331F441F551FB1
:1001D0006A95D2F721503040404050402E213F21B7
:1001E00040235123211531054105510521F021E01E
:1001F00030E040E050E079018A01E628F72808293C
:1002000019293CC0232BD1F1260E371E350146019A
:10021000062E04C096948794779467940A94D2F734
:1002200021E030E040E050E004C0220F331F441FC3
:10023000551F6A95D2F721503040404050402A2146
:100240003B214C215D21211531054105510521F04E
:1002500021E030E040E050E059016A01A628B728CB
:10026000C828D9280BC0821593052CF01C01AA249C
:10027000BB24650103C0EE24FF24870111969C91E5
:10028000D20111968C91981709F445C0992339F041
:10029000A80197012A193B094C095D0906C0A6016E
:1002A00095012E193F09400B510B57FD08C01182D3
:1002B0003382228224833583468357831DC081E0A5
:1002C00081833382228288279927DC01821B930B4A
:1002D000A40BB50B84839583A683B7830DC0220F2F
:1002E000331F441F551F24833583468357838281E0
:1002F000938101979383828324813581468157813D
:10030000DA01C9010197A109B1098F5F9F4FAF4F72
:10031000BF4328F30BC0918333822282EA0CFB1C7B
:100320000C1D1D1DE482F5820683178383E0808304
:10033000248135814681578157FF1AC0C901AA27F8
:1003400097FDA095BA2F81709070A070B0705695EF
:10035000479537952795822B932BA42BB52B848318
:100360009583A683B7838281938101969383828349
:10037000DF0101C0D201CD01CDB7DEB7E2E10C94BF
:100380006609A0E2B0E0E7ECF1E00C94560969835D
:100390007A838B839C832D833E834F835887E9E048
:1003A000EE2EF12CEC0EFD1ECE010196B7010E943F
:1003B000D2048E010F5E1F4FCE010596B8010E9438
:1003C000D2048A8991E089278A8BC701B801AE01DE
:1003D000475E5F4F0E9475000E94FD03A096E6E015
:1003E0000C947209A0E2B0E0E8EFF1E00C94560939
:1003F00069837A838B839C832D833E834F835887C5
:10040000F9E0EF2EF12CEC0EFD1ECE010196B701A6
:100410000E94D2048E010F5E1F4FCE010596B801D7
:100420000E94D204C701B801AE01475E5F4F0E942F
:1004300075000E94FD03A096E6E00C947209A0E20C
:10044000B0E0E5E2F2E00C944A0969837A838B8399
:100450009C832D833E834F835887CE010196BE0136
:10046000675F7F4F0E94D204CE010596BE016F5E8A
:100470007F4F0E94D2049985923088F0898982301A
:10048000C8F0943019F4823051F404C0843029F457
:10049000923081F480E690E0C6C0923049F420E0CA
:1004A0009A858A89981321E02A87CE010996BBC0D4
:1004B000823049F420E09A858A89981321E02A8BBA
:1004C000CE014196B0C02D843E844F8458886D88FB
:1004D0007E888F88988CEE24FF248701AA24BB2471
:1004E000650140E050E060E070E0E0E0F0E0C10174
:1004F00081709070892BE9F0E60CF71C081D191D1E
:100500009A01AB012A0D3B1D4C1D5D1D80E090E062
:10051000A0E0B0E0E614F7040805190520F481E036
:1005200090E0A0E0B0E0BA01A901480F591F6A1F8E
:100530007B1FAA0CBB1CCC1CDD1C97FE08C081E0F5
:1005400090E0A0E0B0E0A82AB92ACA2ADB2A3196B6
:10055000E032F10549F0660C771C881C991C569412
:10056000479437942794C3CFFA85EA892B893C892D
:100570008B859C85280F391F2E5F3F4F17C0CA01FE
:1005800081709070892B61F016950795F794E79428
:1005900080E090E0A0E0B0E8E82AF92A0A2B1B2BC3
:1005A00076956795579547952F5F3F4F77FDE7CF36
:1005B0000CC0440F551F661F771F17FD4160EE0CDE
:1005C000FF1C001F111F21503040403090E05907A0
:1005D00090E0690790E4790760F32B8F3C8FDB0193
:1005E000CA018F779070A070B07080349105A1051A
:1005F000B10561F447FD0AC0E114F10401051105DC
:1006000029F0405C5F4F6F4F7F4F40781A8EFE1786
:1006100011F081E08A8F4D8F5E8F6F8F78A383E01A
:10062000898FCE0149960E94FD03A096E2E10C94C9
:100630006609A8E1B0E0EFE1F3E00C9456096983A4
:100640007A838B839C832D833E834F83588789E0F5
:10065000E82EF12CEC0EFD1ECE010196B7010E9492
:10066000D2048E010F5E1F4FCE010596B8010E9485
:10067000D2048985823040F08989823028F0C70110
:10068000B8010E944A0501C08FEF6896E6E00C941D
:100690007209A8E1B0E0EFE4F3E00C945609698335
:1006A0007A838B839C832D833E834F83588789E095
:1006B000E82EF12CEC0EFD1ECE010196B7010E9432
:1006C000D2048E010F5E1F4FCE010596B8010E9425
:1006D000D2048985823040F08989823028F0C701B0
:1006E000B8010E944A0501C08FEF6896E6E00C94BD
:1006F0007209A8E1B0E0EFE7F3E00C9456096983D2
:100700007A838B839C832D833E834F83588789E034
:10071000E82EF12CEC0EFD1ECE010196B7010E94D1
:10072000D2048E010F5E1F4FCE010596B8010E94C4
:10073000D2048985823040F08989823028F0C7014F
:10074000B8010E944A0501C081E06896E6E00C9479
:100750007209ACE0B0E0EFEAF3E00C945A09698367
:100760007A838B839C83CE010196BE016B5F7F4FA2
:100770000E94D2048D81823061F1823050F1843048
:1007800021F48E81882351F12EC02F81388537FDC9
:1007900020C06E812F3131051CF06623F9F023C093
:1007A0008EE190E0821B930B29853A854B855C8511
:1007B00004C056954795379527958A95D2F76623B5
:1007C000B1F050954095309521953F4F4F4F5F4F79
:1007D0000EC020E030E040E050E009C02FEF3FEFD6
:1007E0004FEF5FE704C020E030E040E050E8B9019F
:1007F000CA012C96E2E00C947609DF92EF92FF9208
:100800000F931F93FC01E480F58006811781D1804E
:100810008081823048F480E090E0A0E1B0E0E82AF6
:10082000F92A0A2B1B2BA5C0843009F49FC0823003
:1008300021F4EE24FF24870105C0E114F104010531
:10084000110519F4E0E0F0E096C0628173819FEF3A
:10085000623879070CF05BC022E83FEF261B370BAC
:100860002A3131052CF020E030E040E050E02AC091
:10087000B801A701022E04C0769567955795479554
:100880000A94D2F781E090E0A0E0B0E004C0880FC5
:10089000991FAA1FBB1F2A95D2F70197A109B10979
:1008A0008E219F21A023B1230097A105B10521F03E
:1008B00081E090E0A0E0B0E09A01AB01282B392B59
:1008C0004A2B5B2BDA01C9018F779070A070B07052
:1008D00080349105A105B10539F427FF09C0205CDA
:1008E0003F4F4F4F5F4F04C0215C3F4F4F4F5F4F13
:1008F000E0E0F0E02030A0E03A07A0E04A07A0E402
:100900005A0710F0E1E0F0E079018A0127C0603871
:10091000710564F5FB01E158FF4FD801C7018F77DE
:100920009070A070B07080349105A105B10539F4C4
:10093000E7FE0DC080E490E0A0E0B0E004C08FE3EB
:1009400090E0A0E0B0E0E80EF91E0A1F1B1F17FFA1
:1009500005C016950795F794E794319687E01695AC
:100960000795F794E7948A95D1F705C0EE24FF2404
:100970008701EFEFF0E06E2F679566276795902F60
:100980009F77D794DD24D7948E2F8695492F462BB9
:10099000582F5D29B701CA011F910F91FF90EF9069
:1009A000DF900895FC01DB01408151812281622F9B
:1009B0006F7770E0221F2227221F9381892F880FD3
:1009C000822B282F30E0991F9927991F11969C930D
:1009D000119721153105A9F54115510561057105DD
:1009E00011F482E037C082E89FEF13969C938E93B8
:1009F00012979A01AB0167E0220F331F441F551F66
:100A00006A95D1F783E08C930DC0220F331F441FEA
:100A1000551F12968D919C911397019713969C9355
:100A20008E931297203080E0380780E0480780E4FA
:100A3000580758F314962D933D934D935C93179755
:100A400008952F3F310579F4411551056105710570
:100A500019F484E08C93089564FF03C081E08C93C3
:100A600012C01C9210C02F57304013963C932E9307
:100A7000129783E08C9387E0440F551F661F771F02
:100A80008A95D1F7706414964D935D936D937C9322
:100A9000179708951F93DC01FB019C91923008F495
:100AA00047C08081823008F443C0943051F41196DD
:100AB0001C91843099F58181682F70E0611B710968
:100AC0003FC0843021F0923031F48230B9F181811D
:100AD000882389F12DC011961C9111978230F1F075
:100AE00081811817D9F412962D913C911397828128
:100AF00093818217930794F028173907BCF0149656
:100B00008D919D910D90BC91A02D248135814681C0
:100B10005781281739074A075B0718F4112341F05A
:100B20000AC082179307A407B50740F4112319F0F0
:100B300061E070E005C06FEF7FEF02C060E070E041
:100B4000CB011F910895DF93CF93CDB7DEB7E89720
:100B50000FB6F894DEBF0FBECDBF80E090E0A8E4F2
:100B6000B2E48DAB9EABAFABB8AF6DA97EA98FA938
:100B700098AD20E030E04AE753E40E941F02DC0118
:100B8000CB0189AB9AABABABBCAB69A97AA98BA9FA
:100B90009CA920E030E040E85FE30E9479038823CD
:100BA0002CF481E090E098AB8FA73FC069A97AA9A7
:100BB0008BA99CA920E03FEF4FE757E40E9419035F
:100BC00018164CF56DA97EA98FA998AD20E030E0EC
:100BD00040E251E40E941F02DC01CB01BC01CD01C7
:100BE0000E944900DC01CB0198AB8FA70FC089E1BF
:100BF00090E09EA78DA78DA59EA50197F1F79EA7D2
:100C00008DA78FA598A9019798AB8FA78FA598A9B5
:100C1000009769F714C069A97AA98BA99CA90E94B9
:100C20004900DC01CB0198AB8FA78FA598A99CA7A1
:100C30008BA78BA59CA50197F1F79CA78BA788E3B1
:100C400090E00E948A0780E090E0A0E8BFE38FA3D5
:100C500098A7A9A7BAA76FA178A589A59AA520E00A
:100C600030E04AE753E40E941F02DC01CB018BA372
:100C70009CA3ADA3BEA36BA17CA18DA19EA120E0EE
:100C800030E040E85FE30E94790388232CF481E0A0
:100C900090E09AA389A33FC06BA17CA18DA19EA1E6
:100CA00020E03FEF4FE757E40E94190318164CF578
:100CB0006FA178A589A59AA520E030E040E251E433
:100CC0000E941F02DC01CB01BC01CD010E94490042
:100CD000DC01CB019AA389A30FC089E190E098A31E
:100CE0008F8F8F8D98A10197F1F798A38F8F89A18E
:100CF0009AA101979AA389A389A19AA1009769F75C
:100D000014C06BA17CA18DA19EA10E944900DC01B1
:100D1000CB019AA389A389A19AA19E8F8D8F8D8DD6
:100D20009E8D0197F1F79E8F8D8F8FE090E00E944E
:100D30008A0780E090E0A0E8BFE3898F9A8FAB8FAD
:100D4000BC8F698D7A8D8B8D9C8D20E030E04AE7D9
:100D500053E40E941F02DC01CB018D8B9E8BAF8B75
:100D6000B88F6D897E898F89988D20E030E040E8CA
:100D70005FE30E94790388232CF481E090E09C8B50
:100D80008B8B3FC06D897E898F89988D20E03FEFE6
:100D90004FE757E40E94190318164CF5698D7A8DB8
:100DA0008B8D9C8D20E030E040E251E40E941F02D8
:100DB000DC01CB01BC01CD010E944900DC01CB016B
:100DC0009C8B8B8B0FC089E190E09A8B898B8989F2
:100DD0009A890197F1F79A8B898B8B899C89019766
:100DE0009C8B8B8B8B899C89009769F714C06D89CC
:100DF0007E898F89988D0E944900DC01CB019C8BF4
:100E00008B8B8B899C89988B8F878F85988901978D
:100E1000F1F7988B8F8781E090E00E948A0780E04D
:100E200090E0A0E0B0E48B879C87AD87BE876B85A0
:100E30007C858D859E8520E030E04AE753E40E9462
:100E40001F02DC01CB018F839887A987BA876F8146
:100E5000788589859A8520E030E040E85FE30E944C
:100E6000790388232CF481E090E09E838D833FC03A
:100E70006F81788589859A8520E03FEF4FE757E4B9
:100E80000E94190318164CF56B857C858D859E850F
:100E900020E030E040E251E40E941F02DC01CB017F
:100EA000BC01CD010E944900DC01CB019E838D83F2
:100EB0000FC089E190E09C838B838B819C8101979B
:100EC000F1F79C838B838D819E8101979E838D8317
:100ED0008D819E81009769F714C06F81788589851F
:100EE0009A850E944900DC01CB019E838D838D8110
:100EF0009E819A83898389819A810197F1F79A83E8
:100F00008983E8960FB6F894DEBF0FBECDBFCF91B0
:100F1000DF910895DF93CF93CDB7DEB72F970FB64C
:100F2000F894DEBF0FBECDBF8F87ABE3B0E0EBE33D
:100F3000F0E080818E7F8C93ABE3B0E0EBE3F0E0F8
:100F400080818D7F8C93E5E3F0E08F858083ABE338
:100F5000B0E0EBE3F0E0808184608C9380E090E08F
:100F6000A0E0B0E48B879C87AD87BE876B857C85CE
:100F70008D859E8520E030E04AE753E40E941F0201
:100F8000DC01CB018F839887A987BA876F81788529
:100F900089859A8520E030E040E85FE30E9479038C
:100FA00088232CF481E090E09E838D833FC06F8185
:100FB000788589859A8520E03FEF4FE757E40E94C6
:100FC000190318164CF56B857C858D859E8520E070
:100FD00030E040E251E40E941F02DC01CB01BC0181
:100FE000CD010E944900DC01CB019E838D830FC09F
:100FF00089E190E09C838B838B819C810197F1F741
:101000009C838B838D819E8101979E838D838D81AF
:101010009E81009769F714C06F81788589859A85CC
:101020000E944900DC01CB019E838D838D819E81CE
:101030009A83898389819A810197F1F79A838983B9
:10104000ABE3B0E0EBE3F0E080818B7F8C932F96F5
:101050000FB6F894DEBF0FBECDBFCF91DF910895DC
:10106000DF93CF93CDB7DEB72F970FB6F894DEBFDF
:101070000FBECDBF8F87ABE3B0E0EBE3F0E0808144
:1010800081608C93ABE3B0E0EBE3F0E080818D7F97
:101090008C93E5E3F0E08F858083ABE3B0E0EBE396
:1010A000F0E0808184608C9380E090E0A0E0B0E488
:1010B0008B879C87AD87BE876B857C858D859E855C
:1010C00020E030E04AE753E40E941F02DC01CB013C
:1010D0008F839887A987BA876F81788589859A8554
:1010E00020E030E040E85FE30E94790388232CF49D
:1010F00081E090E09E838D833FC06F8178858985F4
:101100009A8520E03FEF4FE757E40E941903181635
:101110004CF56B857C858D859E8520E030E040E236
:1011200051E40E941F02DC01CB01BC01CD010E94F1
:101130004900DC01CB019E838D830FC089E190E0E3
:101140009C838B838B819C810197F1F79C838B839C
:101150008D819E8101979E838D838D819E810097D5
:1011600069F714C06F81788589859A850E94490046
:10117000DC01CB019E838D838D819E819A8389833F
:1011800089819A810197F1F79A838983ABE3B0E073
:10119000EBE3F0E080818B7F8C932F960FB6F89471
:1011A000DEBF0FBECDBFCF91DF910895DF93CF9308
:1011B00000D00F92CDB7DEB70E940D09EAE3F0E050
:1011C0008FEF8083E4E3F0E08FEF8083E7E3F0E0EC
:1011D0008FEF80830E94A30580E80E948A070E9407
:1011E0003709898389810E9420098981282F30E06D
:1011F0003B832A838A819B818636910551F02A811F
:101200003B812F36310559F7E8E3F0E08FEF80831B
:10121000E6CFE8E3F0E01082E2CFDF93CF93CDB7E3
:10122000DEB7EAE2F0E088E18083E0E4F0E086E81F
:101230008083E9E2F0E086E08083CF91DF9108953A
:10124000DF93CF930F92CDB7DEB78983EBE2F0E067
:101250008081882F90E0807290700097B9F3ECE263
:10126000F0E0898180830F90CF91DF910895DF9323
:10127000CF930F92CDB7DEB7EBE2F0E08081882309
:10128000DCF7ECE2F0E08081898389810F90CF91D7
:10129000DF9108952F923F924F925F926F927F92CB
:1012A0008F929F92AF92BF92CF92DF92EF92FF9276
:1012B0000F931F93CF93DF93CDB7DEB7CA1BDB0B22
:1012C0000FB6F894DEBF0FBECDBF09942A883988C7
:1012D00048885F846E847D848C849B84AA84B984CE
:1012E000C884DF80EE80FD800C811B81AA81B981DA
:1012F000CE0FD11D0FB6F894DEBF0FBECDBFED01EE
:061300000895F894FFCFF0
:081306000000000000000000DF
:00000001FF
