:100000000C942A000C9434000C9434000C943400AA
:100010000C9434000C9434000C9434000C94340090
:100020000C9434000C9434000C9434000C94340080
:100030000C9434000C9434000C9434000C94340070
:100040000C9434000C9434000C9434000C94340060
:100050000C94340011241FBECFE5D8E0DEBFCDBF25
:100060000E944C030C9471030C940000DF93CF9317
:10007000CDB7DEB727970FB6F894DEBF0FBECDBF62
:1000800089836A834B838981843008F0EEC08A813A
:10009000883008F0EAC08B81813009F06FC0898117
:1000A000282F30E03F832E838E819F818130910500
:1000B00049F12E813F81223031052CF48E819F81C0
:1000C000009761F0D2C02E813F812230310571F15D
:1000D0008E819F8183309105E9F1C7C0ABE3B0E029
:1000E000EBE3F0E08081482F8A81282F30E081E027
:1000F00090E0022E02C0880F991F0A94E2F7842B29
:100100008C93B3C0A8E3B0E0E8E3F0E08081482F2F
:100110008A81282F30E081E090E0022E02C0880F13
:10012000991F0A94E2F7842B8C939FC0A5E3B0E05B
:10013000E5E3F0E08081482F8A81282F30E081E0DC
:1001400090E0022E02C0880F991F0A94E2F7842BD8
:100150008C938BC0A2E3B0E0E2E3F0E08081482F13
:100160008A81282F30E081E090E0022E02C0880FC3
:10017000991F0A94E2F7842B8C9377C08B81882394
:1001800009F073C08981282F30E03D832C838C8156
:100190009D818130910559F12C813D8122303105BD
:1001A0002CF48C819D81009769F05FC02C813D818A
:1001B0002230310589F18C819D818330910509F4CC
:1001C00040C053C0ABE3B0E0EBE3F0E08081482FE8
:1001D0008A81282F30E081E090E0022E02C0880F53
:1001E000991F0A94E2F7809584238C933EC0A8E37C
:1001F000B0E0E8E3F0E08081482F8A81282F30E0EA
:1002000081E090E0022E02C0880F991F0A94E2F765
:10021000809584238C9329C0A5E3B0E0E5E3F0E06A
:100220008081482F8A81282F30E081E090E0022EE3
:1002300002C0880F991F0A94E2F7809584238C935B
:1002400014C0A2E3B0E0E2E3F0E08081482F8A81AD
:10025000282F30E081E090E0022E02C0880F991F25
:100260000A94E2F7809584238C9327960FB6F8942E
:10027000DEBF0FBECDBFCF91DF910895DF93CF9347
:1002800000D000D00F92CDB7DEB78A836B838A810E
:10029000843008F06CC08B81883008F068C08A8197
:1002A000282F30E03D832C834C815D814130510506
:1002B00041F18C819D818230910534F42C813D8106
:1002C0002115310561F055C04C815D8142305105E9
:1002D00051F18C819D8183309105B9F14AC0E9E3E8
:1002E000F0E08081282F30E08B81882F90E0A901F9
:1002F00002C0559547958A95E2F7CA0181708983B6
:1003000038C0E6E3F0E08081282F30E08B81882F31
:1003100090E0A90102C0559547958A95E2F7CA0178
:100320008170898326C0E3E3F0E08081282F30E0EC
:100330008B81882F90E0A90102C0559547958A9539
:10034000E2F7CA018170898314C0E0E3F0E08081A4
:10035000282F30E08B81882F90E0A90102C05595AD
:1003600047958A95E2F7CA018170898302C08FEFB1
:10037000898389810F900F900F900F900F90CF91EC
:10038000DF910895DF93CF93CDB7DEB727970FB6F0
:10039000F894DEBF0FBECDBF89836A834B8389810A
:1003A000843008F0EEC08A81883008F0EAC08B8182
:1003B000813009F06FC08981282F30E03F832E8380
:1003C0008E819F818130910549F12E813F812230BC
:1003D00031052CF48E819F81009761F0D2C02E816F
:1003E0003F812230310571F18E819F8183309105EB
:1003F000E9F1C7C0AAE3B0E0EAE3F0E08081482F6A
:100400008A81282F30E081E090E0022E02C0880F20
:10041000991F0A94E2F7842B8C93B3C0A7E3B0E052
:10042000E7E3F0E08081482F8A81282F30E081E0E7
:1004300090E0022E02C0880F991F0A94E2F7842BE5
:100440008C939FC0A4E3B0E0E4E3F0E08081482F08
:100450008A81282F30E081E090E0022E02C0880FD0
:10046000991F0A94E2F7842B8C938BC0A1E3B0E030
:10047000E1E3F0E08081482F8A81282F30E081E09D
:1004800090E0022E02C0880F991F0A94E2F7842B95
:100490008C9377C08B81882309F073C08981282FC2
:1004A00030E03D832C838C819D818130910559F111
:1004B0002C813D81223031052CF48C819D81009767
:1004C00069F05FC02C813D812230310589F18C813A
:1004D0009D818330910509F440C053C0AAE3B0E088
:1004E000EAE3F0E08081482F8A81282F30E081E024
:1004F00090E0022E02C0880F991F0A94E2F78095BF
:1005000084238C933EC0A7E3B0E0E7E3F0E0808172
:10051000482F8A81282F30E081E090E0022E02C02F
:10052000880F991F0A94E2F7809584238C9329C041
:10053000A4E3B0E0E4E3F0E08081482F8A81282F33
:1005400030E081E090E0022E02C0880F991F0A94EB
:10055000E2F7809584238C9314C0A1E3B0E0E1E33B
:10056000F0E08081482F8A81282F30E081E090E000
:10057000022E02C0880F991F0A94E2F78095842307
:100580008C9327960FB6F894DEBF0FBECDBFCF91E8
:10059000DF910895DF93CF9300D000D0CDB7DEB7C1
:1005A00089836A838981282F30E03C832B838B8168
:1005B0009C8181309105D1F02B813C812230310525
:1005C0002CF48B819C81009761F01EC02B813C81B3
:1005D0002230310581F08B819C818330910581F03F
:1005E00013C0EAE3F0E08A8180830EC0E7E3F0E025
:1005F0008A81808309C0E4E3F0E08A81808304C0BB
:10060000E1E3F0E08A8180830F900F900F900F90CC
:10061000CF91DF910895DF93CF9300D000D0CDB775
:10062000DEB789836A838981282F30E03C832B835E
:100630008B819C8181309105D1F02B813C812230CE
:1006400031052CF48B819C81009761F01EC02B81B9
:100650003C812230310581F08B819C818330910572
:1006600081F013C0EBE3F0E08A8180830EC0E8E301
:10067000F0E08A81808309C0E5E3F0E08A8180832D
:1006800004C0E2E3F0E08A8180830F900F900F9026
:100690000F90CF91DF910895DF93CF93CDB7DEB761
:1006A00083E062E040E00E94C20182E060E041E05D
:1006B0000E94C20182E060E040E00E94360083E0D8
:1006C00062E00E943E01813031F482E060E041E06E
:1006D0000E943600F4CF82E060E040E00E943600E5
:0606E000EECFF894FFCFFD
:00000001FF
