:100000000C942A000C9434000C9434000C943400AA
:100010000C9434000C9434000C9434000C94340090
:100020000C9434000C9434000C9434000C94340080
:100030000C9434000C9434000C9434000C94340070
:100040000C9434000C9434000C9434000C94340060
:100050000C94340011241FBECFE5D8E0DEBFCDBF25
:100060000E94A7030C94F6040C940000DF93CF9336
:10007000CDB7DEB7A6E2B0E0E6E2F0E080818068CE
:100080008C93A6E2B0E0E6E2F0E0808181608C93A0
:10009000A6E2B0E0E6E2F0E0808182608C93A6E226
:1000A000B0E0E6E2F0E0808184608C93A7E2B0E00B
:1000B000E7E2F0E0808180648C93A7E2B0E0E7E2C1
:1000C000F0E0808180628C93CF91DF910895DF937F
:1000D000CF9300D0CDB7DEB78A83A7E2B0E0E7E2E6
:1000E000F0E08081982F8A818770892B8C93A6E21B
:1000F000B0E0E6E2F0E0808180648C93E6E2F0E03C
:100100008081882F90E0807190700097B9F3E5E2CC
:10011000F0E08081898389810F900F90CF91DF91EA
:100120000895DF93CF93CDB7DEB727970FB6F89436
:10013000DEBF0FBECDBF89836A834B838981843044
:1001400008F0EEC08A81883008F0EAC08B818130E7
:1001500009F06FC08981282F30E03F832E838E8184
:100160009F818130910549F12E813F8122303105F7
:100170002CF48E819F81009761F0D2C02E813F8147
:100180002230310571F18E819F8183309105E9F133
:10019000C7C0ABE3B0E0EBE3F0E08081482F8A8199
:1001A000282F30E081E090E0022E02C0880F991FD6
:1001B0000A94E2F7842B8C93B3C0A8E3B0E0E8E3A1
:1001C000F0E08081482F8A81282F30E081E090E0A4
:1001D000022E02C0880F991F0A94E2F7842B8C9399
:1001E0009FC0A5E3B0E0E5E3F0E08081482F8A817D
:1001F000282F30E081E090E0022E02C0880F991F86
:100200000A94E2F7842B8C938BC0A2E3B0E0E2E384
:10021000F0E08081482F8A81282F30E081E090E053
:10022000022E02C0880F991F0A94E2F7842B8C9348
:1002300077C08B81882309F073C08981282F30E033
:100240003D832C838C819D818130910559F12C81D6
:100250003D81223031052CF48C819D81009769F01D
:100260005FC02C813D812230310589F18C819D81D7
:100270008330910509F440C053C0ABE3B0E0EBE339
:10028000F0E08081482F8A81282F30E081E090E0E3
:10029000022E02C0880F991F0A94E2F780958423EA
:1002A0008C933EC0A8E3B0E0E8E3F0E08081482F03
:1002B0008A81282F30E081E090E0022E02C0880F72
:1002C000991F0A94E2F7809584238C9329C0A5E3B3
:1002D000B0E0E5E3F0E08081482F8A81282F30E00C
:1002E00081E090E0022E02C0880F991F0A94E2F785
:1002F000809584238C9314C0A2E3B0E0E2E3F0E0A5
:100300008081482F8A81282F30E081E090E0022E02
:1003100002C0880F991F0A94E2F7809584238C937A
:1003200027960FB6F894DEBF0FBECDBFCF91DF91F9
:100330000895DF93CF9300D000D00F92CDB7DEB7F2
:100340008A836B838A81843008F06CC08B8188300B
:1003500008F068C08A81282F30E03D832C834C81CF
:100360005D814130510541F18C819D818230910543
:1003700034F42C813D812115310561F055C04C814B
:100380005D814230510551F18C819D818330910511
:10039000B9F14AC0E9E3F0E08081282F30E08B8199
:1003A000882F90E0A90102C0559547958A95E2F7FC
:1003B000CA018170898338C0E6E3F0E08081282F8C
:1003C00030E08B81882F90E0A90102C055954795B8
:1003D0008A95E2F7CA018170898326C0E3E3F0E0E1
:1003E0008081282F30E08B81882F90E0A90102C006
:1003F000559547958A95E2F7CA018170898314C0A3
:10040000E0E3F0E08081282F30E08B81882F90E0BE
:10041000A90102C0559547958A95E2F7CA018170F6
:10042000898302C08FEF898389810F900F900F908D
:100430000F900F90CF91DF910895DF93CF93CDB7B9
:10044000DEB727970FB6F894DEBF0FBECDBF898306
:100450006A834B838981843008F0EEC08A818830BA
:1004600008F0EAC08B81813009F06FC08981282FA4
:1004700030E03F832E838E819F818130910549F149
:100480002E813F81223031052CF48E819F8100978F
:1004900061F0D2C02E813F812230310571F18E8111
:1004A0009F8183309105E9F1C7C0AAE3B0E0EAE398
:1004B000F0E08081482F8A81282F30E081E090E0B1
:1004C000022E02C0880F991F0A94E2F7842B8C93A6
:1004D000B3C0A7E3B0E0E7E3F0E08081482F8A8172
:1004E000282F30E081E090E0022E02C0880F991F93
:1004F0000A94E2F7842B8C939FC0A4E3B0E0E4E37A
:10050000F0E08081482F8A81282F30E081E090E060
:10051000022E02C0880F991F0A94E2F7842B8C9355
:100520008BC0A1E3B0E0E1E3F0E08081482F8A8155
:10053000282F30E081E090E0022E02C0880F991F42
:100540000A94E2F7842B8C9377C08B81882309F07F
:1005500073C08981282F30E03D832C838C819D815D
:100560008130910559F12C813D81223031052CF4E7
:100570008C819D81009769F05FC02C813D81223084
:10058000310589F18C819D818330910509F440C04A
:1005900053C0AAE3B0E0EAE3F0E08081482F8A810B
:1005A000282F30E081E090E0022E02C0880F991FD2
:1005B0000A94E2F7809584238C933EC0A7E3B0E0D1
:1005C000E7E3F0E08081482F8A81282F30E081E046
:1005D00090E0022E02C0880F991F0A94E2F78095DE
:1005E00084238C9329C0A4E3B0E0E4E3F0E08081AD
:1005F000482F8A81282F30E081E090E0022E02C04F
:10060000880F991F0A94E2F7809584238C9314C075
:10061000A1E3B0E0E1E3F0E08081482F8A81282F58
:1006200030E081E090E0022E02C0880F991F0A940A
:10063000E2F7809584238C9327960FB6F894DEBF5B
:100640000FBECDBFCF91DF910895DF93CF9300D040
:1006500000D0CDB7DEB789836A838981282F30E047
:100660003C832B838B819C8181309105D1F02B8140
:100670003C81223031052CF48B819C81009761F004
:100680001EC02B813C812230310581F08B819C8101
:100690008330910581F013C0EAE3F0E08A81808322
:1006A0000EC0E7E3F0E08A81808309C0E4E3F0E074
:1006B0008A81808304C0E1E3F0E08A8180830F9027
:1006C0000F900F900F90CF91DF910895DF93CF930C
:1006D00000D000D0CDB7DEB789836A838981282F07
:1006E00030E03C832B838B819C8181309105D1F05C
:1006F0002B813C81223031052CF48B819C81009729
:1007000061F01EC02B813C812230310581F08B814C
:100710009C818330910581F013C0EBE3F0E08A8186
:1007200080830EC0E8E3F0E08A81808309C0E5E3BE
:10073000F0E08A81808304C0E2E3F0E08A81808374
:100740000F900F900F900F90CF91DF910895DF934E
:10075000CF9300D000D0CDB7DEB783E061E00E9438
:10076000250381E061E00E94250382E061E00E94B0
:10077000250380E060E00E9425030E94360080E0AF
:100780000E946700882F90E09C838B832B813C81A3
:10079000C901880F991F880F991F820F931F2AEF95
:1007A00030E0B9010E94CF04CB019A83898389810B
:1007B0009A81843091050CF479C081E060E040E0DA
:1007C0000E94910081E061E040E00E94910081E0A0
:1007D00062E041E00E94910081E063E041E00E941C
:1007E000910081E064E041E00E94910081E065E0D9
:1007F00041E00E94910081E066E041E00E949100AA
:1008000081E067E041E00E94910082E060E040E02A
:100810000E94910082E061E041E00E94910082E04C
:1008200062E041E00E94910082E063E041E00E94CA
:10083000910082E064E040E00E94910082E065E087
:1008400040E00E94910082E066E040E00E9491005A
:1008500082E067E041E00E94910083E060E040E0D8
:100860000E94910083E061E041E00E94910083E0FA
:1008700062E041E00E94910083E063E041E00E9479
:10088000910083E064E040E00E94910083E065E035
:1008900040E00E94910083E066E040E00E94910009
:1008A00083E067E041E00E94910069CF81E060E071
:1008B00040E00E94910081E061E040E00E949100F0
:1008C00081E062E041E00E94910081E063E041E06C
:1008D0000E94910081E064E041E00E94910081E08B
:1008E00065E041E00E94910081E066E041E00E9405
:1008F000910081E067E041E00E94910082E060E0C9
:1009000040E00E94910082E061E041E00E9491009D
:1009100082E062E040E00E94910082E063E041E01A
:100920000E94910082E064E040E00E94910082E039
:1009300065E041E00E94910082E066E040E00E94B4
:10094000910082E067E040E00E94910083E060E077
:1009500040E00E94910083E061E040E00E9491004D
:1009600083E062E040E00E94910083E063E040E0C9
:100970000E94910083E064E040E00E94910083E0E7
:1009800065E040E00E94910083E066E040E00E9464
:10099000910083E067E040E00E949100F0CE97FB79
:1009A000092E07260AD077FD04D00CD006D00020EF
:1009B0001AF4709561957F4F0895F6F7909581959B
:1009C0009F4F0895AA1BBB1B51E107C0AA1FBB1F65
:1009D000A617B70710F0A61BB70B881F991F5A95CB
:1009E000A9F780959095BC01CD010895F894FFCFAB
:00000001FF
